:060000000A128A112D2DE9
:100A0C004534593471340434053410340634F00050
:100A1C00831203130C1270080F39303E9900162DF7
:100A2C000C1E192D1A2D162D1B2D08007E088A0060
:100A3C007F0882001C250A128A118000840A04088F
:100A4C007D0603190034FF0A0319FE0A202D8313B7
:100A5C002F30FD000530FE000630FF0028308400EA
:100A6C000A128A1120250A128A1183010A128A118C
:100A7C00D42DF100831203130C127108F000043012
:100A8C000310F00CFF3E031D462D7008303E9900FC
:100A9C004F2D0C1E522D532D4F2D542D08008030F0
:100AAC0083160313940028308312031394003130FF
:100ABC008316031393001114632D1118662D672DE3
:100ACC00632D682DD0308312031393006D2D831684
:100ADC0003131418722D732D6D2D752D752D111882
:100AEC00782D792D752D91187C2D7D2D752D111945
:100AFC00802D812D752D9119842D852D752D141911
:100B0C00882D892D752D8A2D0730831203139300A0
:100B1C008F2D831603131418942D952D8F2D972D2F
:100B2C00972D11189A2D9B2D972D91189E2D9F2D39
:100B3C00972D1119A22DA32D972D9119A62DA72D07
:100B4C00972D1419AA2DAB2D972DAC2D83120313B1
:100B5C009301B02D831603131418B52DB62DB02D9B
:100B6C00B82DB82D1118BB2DBC2DB82D9118BF2D3B
:100B7C00C02DB82D1119C32DC42DB82D9119C72D09
:100B8C00C82DB82D1419CB2DCC2DB82D1115CE2D5B
:100B9C001119D12DD22DCE2DD32D080080308316D6
:100BAC00031387000716071ADC2DE02D8316031399
:100BBC008715E32D8316031387112430980090308A
:100BCC0083120313980081308316031399000030AD
:100BDC00F3000130F2008630F100A030F0000A1270
:100BEC008A1155250A128A11203084002830F4000D
:100BFC000408F5000730F60074088400831300081D
:100C0C00F700F40A7508840077088000F50AF60BE3
:100C1C00022E0A128A118B260A128A11152E063000
:100C2C00F6000E30F500B030F400F40B1B2EF50B73
:100C3C001B2EF60B1B2E0630F6000E30F500B030D6
:100C4C00F400F40B272EF50B272EF60B272E06306F
:100C5C00F6000E30F500B030F400F40B332EF50B2B
:100C6C00332EF60B332E00300A128A1144270A1247
:100C7C008A11F400740883120313A7000230F600E3
:100C8C004430F500A930F400F40B4A2EF50B4A2E33
:100C9C00F60B4A2E64008312031327080A128A11DA
:100CAC000D250A128A110230F6004430F500A930E5
:100CBC00F400F40B5F2EF50B5F2EF60B5F2E640029
:100CCC008312031327080A128A113F250A128A116C
:100CDC000230F6004430F500A930F400F40B742E09
:100CEC00F50B742EF60B742E6400831203130C1286
:100CFC000A309900812E0C1E842E852E812E152EE5
:100D0C00152E152E0A128A1100288316031311149E
:100D1C008F2E1118922E932E8F2E942ED03083124C
:100D2C0003139300992E8316031314189E2E9F2ED3
:100D3C00992EA12EA12E1118A42EA52EA12E9118FC
:100D4C00A82EA92EA12E1119AC2EAD2EA12E9119C3
:100D5C00B02EB12EA12E1419B42EB52EA12EB62E56
:100D6C00831203139301BA2E831603131418BF2E88
:100D7C00C02EBA2EC22EC22E1118C52EC62EC22EB1
:100D8C009118C92ECA2EC22E1119CD2ECE2EC22EBE
:100D9C009119D12ED22EC22E1419D52ED62EC22E8A
:100DAC00D72E0530831203139300DC2E8316031306
:100DBC001418E12EE22EDC2EE42EE42E1118E72E70
:100DCC00E82EE42E9118EB2EEC2EE42E1119EF2EBA
:100DDC00F02EE42E9119F32EF42EE42E1419F72E86
:100DEC00F82EE42EF92E0630831203139300FE2EF8
:100DFC00831603131418032F042FFE2E062F062F11
:100E0C001118092F0A2F062F91180D2F0E2F062FB0
:100E1C001119112F122F062F9119152F162F062F7E
:100E2C001419192F1A2F062F1B2F07308312031397
:100E3C009300202F831603131418252F262F202FF1
:100E4C00282F282F11182B2F2C2F282F91182F2FAC
:100E5C00302F282F1119332F342F282F9119372F7A
:100E6C00382F282F14193B2F3C2F282F11153E2FCC
:100E7C001119412F422F3E2F432F0800F2008316E9
:100E8C0003131114492F11184C2F4D2F492F4E2F8E
:100E9C00D030831203139300532F831603131418AB
:100EAC00582F592F532F5B2F5B2F11185E2F5F2F4D
:100EBC005B2F9118622F632F5B2F1119662F672FF1
:100ECC005B2F91196A2F6B2F5B2F14196E2F6F2FBD
:100EDC005B2F702F7208831203139300752F8316E8
:100EEC00031314187A2F7B2F752F7D2F7D2F11183C
:100EFC00802F812F7D2F9118842F852F7D2F1119F5
:100F0C00882F892F7D2F91198C2F8D2F7D2F1419C0
:100F1C00902F912F7D2F1115932F1119962F972FFD
:100F2C00932F1114992F11189C2F9D2F992F9E2FB1
:100F3C00D130831203139300A32F831603131418B9
:100F4C00A82FA92FA32FAB2FAB2F1118AE2FAF2F7C
:100F5C00AB2F9118B22FB32FAB2F1119B62FB72F70
:100F6C00AB2F9119BA2FBB2FAB2F1419BE2FBF2F3C
:100F7C00AB2F9115C12F141CC42FC52FC12FC62FF9
:100F8C00831203131308F0007008F300CD2F83169F
:100F9C0003131118D22FD32FCD2F9118D62FD72F53
:100FAC00CD2F1119DA2FDB2FCD2F9119DE2FDF2F3B
:100FBC00CD2F1419E22FE32FCD2FE42F4130F10068
:100FCC00EE30F000F00BE82FF10BE82F64008316E5
:100FDC00031391161116F22F111AF52FF62FF22F6B
:100FEC001115F82F1119FB2FFC2FF82FFD2F73085B
:040FFC00FF2F0800BB
:02400E00F2209E
:00000001FF
